:100000000C942A000C94C4020C94EB020C9412037E
:100010000C9447000C9447000C9447000C94470044
:100020000C9447000C9447000C94B5040C944700C2
:100030000C9447000C9447000C9447000C94470024
:100040000C947A000C9447000C9458030C944700CD
:100050000C94470011241FBECFE5D8E0DEBFCDBF12
:1000600010E0A0E6B0E0E0EFFCE002C005900D92E9
:10007000A236B107D9F710E0A2E6B0E001C01D92A8
:10008000A637B107E1F70E9403050C9476060C949D
:1000900000003E9A3F983D98329A319A309A379AAA
:1000A000089597B1907E97B997B18770892B87B9DA
:1000B000369A349BFECF24B135B1C90108953E9ADA
:1000C0003F983D98329A319A309A379A339A0895E8
:1000D00097B1907E97B997B18770892B87B9369A77
:1000E000089524B135B1C9010895909369008093B2
:1000F000680008951F920F920FB60F9211242F934C
:100100003F934F935F936F937F938F939F93AF939F
:10011000BF93EF93FF93E0916800F0916900099518
:10012000FF91EF91BF91AF919F918F917F916F91CF
:100130005F914F913F912F910F900FBE0F901F90A5
:10014000189580916600882319F0813029F0089570
:1001500081E0809366000895109266000895809172
:100160006000823071F0882339F480916A008B340A
:1001700018F48B5F80936A00109263001092620003
:10018000089510926000109263001092620008952A
:1001900080916000823071F0882339F480916A0088
:1001A000843218F0855080936A0010926300109298
:1001B0006200089510926000109263001092620035
:1001C0000895809164008F5F809364008091650042
:1001D0008F5F80936500089570E0282F30E0CB0199
:1001E0000496821793074CF0645070402617370727
:1001F00014F080E0089582E0089581E00895813050
:1002000041F0823009F0089587E062E00E945D02CB
:10021000089587E062E041E00E948F010895382F41
:100220008830D8F44130D9F04423B9F46130C1F1B9
:10023000613068F42AB381E090E002C0880F991F12
:100240003A95E2F7809582238ABB81E00895623077
:1002500009F44CC0633009F43CC080E0089561307B
:1002600009F451C0613060F42AB381E090E002C02B
:10027000880F991F3A95E2F7282B2ABB81E0089551
:100280006230D9F0633049F721B381E090E002C0D9
:10029000880F991F3A95E2F7282B21BB81E008953A
:1002A00027B381E090E002C0880F991F3A95E2F7EA
:1002B0008095822387BB81E0089524B381E090E09C
:1002C00002C0880F991F3A95E2F7282B24BB81E0E2
:1002D000089521B381E090E002C0880F991F3A95FC
:1002E000E2F78095822381BB81E0089524B381E009
:1002F00090E002C0880F991F3A95E2F7809582231B
:1003000084BB81E0089527B381E090E002C0880FAC
:10031000991F3A95E2F7282B27BB81E00895382FE3
:100320008830D0F46130D1F0613090F4413009F47C
:1003300049C0442389F42BB381E090E002C0880FC8
:10034000991F3A95E2F7809582238BBB81E008954F
:10035000623039F16330A1F080E00895413009F452
:1003600055C04423C9F728B381E090E002C0880F4C
:10037000991F3A95E2F78095822388BB81E0089522
:100380004130C1F1442341F722B381E090E002C043
:10039000880F991F3A95E2F78095822382BB81E00E
:1003A00008954130D9F04423B9F625B381E090E0B7
:1003B00002C0880F991F3A95E2F78095822385BB8A
:1003C00081E008952BB381E090E002C0880F991F6F
:1003D0003A95E2F7282B2BBB81E0089525B381E005
:1003E00090E002C0880F991F3A95E2F7282B25BBB1
:1003F00081E0089522B381E090E002C0880F991F48
:100400003A95E2F7282B22BB81E0089528B381E0DA
:1004100090E002C0880F991F3A95E2F7282B28BB7D
:1004200081E00895813059F0813028F0823049F020
:10043000833019F008956BBB089562BB089568BBC3
:10044000089565BB0895813059F0813028F08230DD
:1004500049F0833019F008956ABB089561BB08958F
:1004600067BB089564BB08958130B9F0813028F0EE
:100470008230D9F0833049F008958BB38F708BBBF5
:100480008BB3607F862B8BBB089582B38F7082BB4A
:1004900082B3607F862B82BB089588B38F7088BB40
:1004A00088B3607F862B88BB089585B38F7085BB2A
:1004B00085B3607F862B85BB0895382F883040F444
:1004C0006130A1F0613030F0623041F16330D1F041
:1004D00080E008952BB381E090E002C0880F991F5F
:1004E0003A95E2F728272BBB81E0089528B381E0F5
:1004F00090E002C0880F991F3A95E2F7282728BBA1
:1005000081E0089522B381E090E002C0880F991F36
:100510003A95E2F7282722BB81E0089525B381E0D0
:1005200090E002C0880F991F3A95E2F7282725BB73
:1005300081E0089585B7826085BF85B78E7F85BFCE
:100540008BB780648BBF089585B78B7F85BF85B7D8
:10055000886085BF8BB780688BBF089584B78F7B19
:1005600084BF8BB780628BBF089590936F00809398
:100570006E00089590937100809370000895909399
:100580006D0080936C0008951F920F920FB60F922A
:1005900011242F933F934F935F936F937F938F9388
:1005A0009F93AF93BF93EF93FF93E0916E00F09111
:1005B0006F000995FF91EF91BF91AF919F918F913E
:1005C0007F916F915F914F913F912F910F900FBE4F
:1005D0000F901F9018951F920F920FB60F92112433
:1005E0002F933F934F935F936F937F938F939F933B
:1005F000AF93BF93EF93FF93E0917000F091710080
:100600000995FF91EF91BF91AF919F918F917F914C
:100610006F915F914F913F912F910F900FBE0F906F
:100620001F9018951F920F920FB60F9211242F93BF
:100630003F934F935F936F937F938F939F93AF936A
:10064000BF93EF93FF93E0916C00F0916D000995DB
:10065000FF91EF91BF91AF919F918F917F916F919A
:100660005F914F913F912F910F900FBE0F901F9070
:1006700018958FB780688FBF08958FB78F778FBF1A
:100680000895E199FECF07B600FCFDCF9FBB8EBB5E
:100690006DBBE29AE19A0895E199FECF9FBB8EBBB4
:1006A000E09A8DB30895909373008093720008953B
:1006B0001F920F920FB60F9211242F933F934F93D7
:1006C0005F936F937F938F939F93AF93BF93EF93BA
:1006D000FF93E0917200F09173000995FF91EF9103
:1006E000BF91AF919F918F917F916F915F914F914A
:1006F0003F912F910F900FBE0F901F90189581E0A2
:1007000061E040E00E948F0184E061E040E00E94EF
:100710008F0108950F931F93162F813009F48BC01A
:10072000882329F1823019F101E0143069F1153084
:10073000C8F5113009F49BC0113008F052C084E0B4
:1007400060E040E00E948F0185E060E040E00E94B0
:100750008F0186E060E040E00E948F0187E060E06A
:1007600040E00E948F01802F1F910F91089581E03A
:1007700061E040E00E948F0184E061E041E00E947E
:100780008F0100E0143099F684E060E040E00E94C0
:100790008F0185E060E040E00E948F0186E060E02C
:1007A00041E0DACF173009F466C0183038F018305D
:1007B00009F459C0193039F101E0D5CF153009F4E9
:1007C0004EC01630C9F784E060E040E00E948F011F
:1007D00085E060E041E00E948F0186E060E041E05A
:1007E000BBCF123099F1133039F784E060E041E07B
:1007F0000E948F0185E060E041E00E948F0186E069
:1008000060E040E0A9CF84E060E041E00E948F0119
:1008100085E060E040E00E948F0186E060E040E01B
:100820000E948F0187E060E041E00E948F01802FED
:100830001F910F91089561E041E00E948F0184E0D3
:1008400061E040E00E948F0100E06FCF84E060E053
:1008500040E00E948F0185E060E041E078CF84E0D5
:1008600060E041E094CF84E060E040E0CFCF84E0FE
:1008700060E041E067CF84E060E041E0A7CFFC01A9
:1008800090819A3079F0933159F0992351F4862F61
:100890006AE00E94480681E0692F0E948A03089559
:1008A00010820895862F6AE00E944806682F80E033
:1008B0000E948A030895882319F0813031F0089549
:1008C000CB01642F0E943F0408950E947F03089586
:1008D00081E061E041E00E940F0184E061E041E0DD
:1008E0000E940F0184E060E041E00E940F0185E07A
:1008F00060E041E00E940F0186E060E041E00E947C
:100900000F0187E060E041E00E940F01089581B58A
:10091000886081BD089581B5806181BD81B5877F83
:1009200081BD089588E181BD11BC089583B78F7B97
:1009300083BF83B7886083BF89B7826089BF83B76D
:10094000887F83BF83B7836083BF83B78F7D83BF77
:1009500083B78F7E83BF089582BF08958CBF0895AB
:10096000909375008093740008951F920F920FB6B4
:100970000F9211242F933F934F935F936F937F9325
:100980008F939F93AF93BF93EF93FF93E091740086
:10099000F09175000995FF91EF91BF91AF919F91F3
:1009A0008F917F916F915F914F913F912F910F9018
:1009B0000FBE0F901F9018958FB58E7F8FBD8FB58E
:1009C0008D7F8FBD8EB5877F8EBD8EB58F7E8EBDA0
:1009D00089B7846089BF089585B5886085BD85B570
:1009E000806485BD85B5887F85BD85B5876085BDFB
:1009F00085B58F7E85BD85B58F7D85BD089584BD08
:100A0000089583BD08959F92AF92BF92CF92DF92D7
:100A1000EF92FF920F931F93CF93DF9387E062E0F3
:100A200041E00E940F0182E063E040E00E940F017C
:100A300086E063E040E00E940F0180E061E040E07A
:100A40000E940F0184E190E06CE30E94410380E486
:100A50009CE90197F1F784E190E00E944C038093B8
:100A60006A000E9468040E9496040E94490081EA7C
:100A700090E00E94B5028FEA90E00E94BA0288ECF2
:100A800090E00E94BF028AEF0E94AE0481EE90E0E7
:100A90000E94B0040E949A020E94A4020E94AE0228
:100AA0000E943903CC24DD247601AA24BB24C0E0B3
:100AB000D0E000E0809166009924939412E08130A8
:100AC000E9F0109360000E947F0387E062E040E05D
:100AD0000E948F0184E190E00E944C0380936A00A1
:100AE00010926400109265001092630010926200F0
:100AF000C0E0D0E080916600813019F780916000FD
:100B0000882369F0813091F18230C1F784E690E06A
:100B100060916A000E943F0480916600D0CF802FD0
:100B200064E670E040916A000E945B048091650079
:100B3000843609F464C023E0C83ED20709F44FC0EC
:100B400080916200909163008858934129F784E175
:100B500090E060916A000E944103909260001092C0
:100B600063001092620080916600A9CF84E690E055
:100B70006A2D0E943F0480916500843609F448C0C4
:100B800083E0C83ED80741F6C701B6012AE030E04D
:100B900040E050E00E945406C901DA016C017D0179
:100BA000C701B6012AE030E040E050E00E94540660
:100BB0005901822F60916A000E94EC000E94FF00A0
:100BC000809162009091630088519C4F90936300E4
:100BD00080936200C0E0D0E08091660070CF002377
:100BE00099F401E0809162009091630088519C4FDC
:100BF0009093630080936200C0E0D0E0A5CFCC5911
:100C0000DF4F1092650097CF013061F700E0EACF27
:100C100080E00E945100A0E0B0E0BC01CD0128E8D6
:100C200033E140E050E00E9429062AE0969587953E
:100C3000779567952A95D1F780E090E0C60ED71E8C
:100C4000E81EF91E80916500C80FD11D1092650045
:100C500097CF629FD001739FF001829FE00DF11D3D
:100C6000649FE00DF11D929FF00D839FF00D749F26
:100C7000F00D659FF00D9927729FB00DE11DF91FD2
:100C8000639FB00DE11DF91FBD01CF01112408952F
:100C9000991B79E004C0991F961708F0961B881FCE
:100CA0007A95C9F780950895A1E21A2EAA1BBB1B5D
:100CB000FD010DC0AA1FBB1FEE1FFF1FA217B30728
:100CC000E407F50720F0A21BB30BE40BF50B661F3E
:100CD000771F881F991F1A9469F760957095809502
:100CE00090959B01AC01BD01CF010895F894FFCF11
:020CF000020000
:00000001FF
